:040000000C94550007
:04002C000C941E040E
:140054002430300000312E597557656E202020200000322EDD
:140068005368755875652020200000332E59696E67597520DC
:14007C0020200000342E57756C6920202020200000352E48E2
:140090007561787565202020000005050505054D3A004D5A8D
:0500A4003A004F4B0083
:1400AA00CFE5D4E0CDBFDEBFCE51D0400AEA08830024E5EB0F
:1400BE00F0E011E0E630F10711F00192FBCF0083E4E5F0E0E5
:1400D200A0E6B0E010E000E00BBFE93AF10721F0C89531961A
:1400E6000D92F9CF0E948101FFCF02E00A9508954A935A93C5
:1400FA00A80101C0F8DF1A01415050402220D1F73320C1F760
:14010E0059914991089504EF11E0EECF4A935A93A80101C0A7
:14012200F8DF1A01415050402220D1F73320C1F759914991DD
:14013600089522242AB82BB886E880BD83E389B920BC88E96D
:14014A008AB908955D9BFECF0CB90895222428BA8FEF87BBB2
:14015E0082B38F7882BB81B3806781BB08954A93402F9598A7
:140172009498969888B38F7088BB842F807F28B2282A28BAE2
:14018600969A969888B38F7088BB842F8F70829528B2282A95
:14019A0028BA0AE010E00E947B00969A969805E010E00E94A3
:1401AE008D00499108954A93402F9598949A969888B38F702A
:1401C20088BB842F807F28B2282A28BA969A969888B38F708E
:1401D60088BB842F8F70829528B2282A28BA969A969805E0B8
:1401EA0010E00E948D004991089506E910E00E948D000FE06E
:1401FE0010E00E948D0002E0B2DF0FE010E00E948D0008E263
:14021200ACDF0FE010E00E948D0006E0A6DF0FE010E00E9453
:140226008D000CE0A0DF0FE010E00E948D0001E09ADF0FE075
:14023A0010E00C948D000E944E05A22E602FAA2019F4462FF3
:14024E00405802C0462F4054042F89DF0C9455050E945C05A1
:14026200C22EA02E4E815F812C2D0A2DE8DF01E010E00E9451
:140276008D008A010E94FC04C02EAA240AC0FA01008195DF44
:14028A004F5F5F4F01E010E00E948D00A394AC14A0F30C94DA
:14029E0063050E944705E22EC02EAE802E2D0C2DC8DF01E0AE
:1402B20010E00E948D000A2D7CDF01E010E00E948D000C94E7
:1402C6003C054A934FEF05E010E00E948D00989903C041E0AF
:1402DA00989BFECF999903C042E0999BFECF9A9903C043E0DF
:1402EE009A9BFECF9B9903C044E09B9BFECF042F4991089532
:140302002297F894222424BA8FEF85BB82E081BB8FEF82BB67
:140316001FDF6DDF82EB90E099838883222700279BDF07DFB5
:14032A00222425BE2BBE29BE789480C2C8DF402F0F3F09F417
:14033E0071C0013009F056C003E502DF01E400DF1AE0009122
:14035200A6000E942605005DF9DE1AE00091A6000E942405F4
:14036600005DF2DE02E4F0DE1AE00091A7000E942605005D46
:14037A00E9DE1AE00091A7000E942405005DE2DE03E4E0DEE9
:14038E001AE00091A8000E942605005DD9DE1AE00091A80014
:1403A2000E942405005DD2DE04E4D0DE1AE00091A9000E9403
:1403B6002605005DC9DE1AE00091A9000E942405005DC2DE08
:1403CA0005E4C0DE1AE00091AA000E942605005DB9DE1AE0A8
:1403DE000091AA000E942405005DB2DE0DE0B0DE0AE0AEDE27
:1403F200423051F4809105018F5F80930501853018F022241F
:1404060020920501433051F4809102018F5F809302018330A7
:14041A0018F022242092020180910301813009F05CC12224A9
:14042E00209203011091A6000091BD0001031092B600009281
:14044200B5001091A7000091BE0001032090B5003090B6007B
:14045600200C311C3092B6002092B5001091A8000091BF00A1
:14046A000103200C311C3092B6002092B5001091A900009147
:14047E00C0000103200C311C3092B6002092B5001091AA0003
:140492000091C1000103200C311C3092B6002092B5003092E6
:1404A600B8002092B7001091A6000091C30001031092B6002A
:1404BA000092B5001091A7000091C40001032090B500309021
:1404CE00B600200C311C3092B6002092B5001091A800009132
:1404E200C5000103200C311C3092B6002092B5001091A9009B
:1404F6000091C6000103200C311C3092B6002092B50010919E
:14050A00AA000091C7000103200C311C3092B6002092B5007F
:14051E003092BA002092B9001091A6000091C900010310929B
:14053200B6000092B5001091A7000091CA0001032090B500AC
:140546003090B600200C311C3092B6002092B5001091A8008A
:14055A000091CB000103200C311C3092B6002092B500109134
:14056E00A9000091CC000103200C311C3092B6002092B50017
:140582001091AA000091CD000103200C311C3092B600209215
:14059600B5003092BC002092BB000AE4D5DD28EE33E0009157
:1405AA00B7001091B8000E940A05005D1F4FCADD24E630E0F0
:1405BE000091B7001091B8000E940A052AE030E00E9408050E
:1405D200005D1F4FBBDD2AE030E00091B7001091B8000E9455
:1405E6000A052AE030E00E940805005D1F4FACDD2AE030E0BB
:1405FA000091B7001091B8000E940805005D1F4FA1DD28EE3E
:14060E0033E00091B9001091BA000E940A05005D1F4F96DD31
:1406220024E630E00091B9001091BA000E940A052AE030E03A
:140636000E940805005D1F4F87DD2AE030E00091B9001091CD
:14064A00BA000E940A052AE030E00E940805005D1F4F78DD48
:14065E002AE030E00091B9001091BA000E940805005D1F4F4F
:140672006DDD28EE33E00091BB001091BC000E940A05005D4A
:140686001F4F62DD24E630E00091BB001091BC000E940A053F
:14069A002AE030E00E940805005D1F4F53DD2AE030E00091DD
:1406AE00BB001091BC000E940A052AE030E00E940805005D49
:1406C2001F4F44DD2AE030E00091BB001091BC000E94080523
:1406D600005D1F4F39DD0DE037DD0AE035DD86EA90E0E091E1
:1406EA000501FF27E80FF91F00811AE00E942605802F805DED
:1406FE008093620086EA90E0E0910501FF27E80FF91F008166
:140712001AE00E942405802F805D80936300109105010DE078
:140726000103100185E690E0280E391E39822882222700276D
:14073A0091DD80E690E09983888322270CE08ADD8EEA90E0BC
:14074E009983888321E0002783DD009102010F5C2ADD8BEA6D
:1407620090E09983888321E00DE078DD1091020106E001031B
:1407760010018DEB90E0280E391EE0910501FF27E20DF31D4D
:14078A000081005D12DD21E005E055DD87EB90E0E091020120
:14079E00FF27EE0FFF1FE80FF91F0081118128EE33E00E9419
:1407B2000A05005D1F4FFDDC87EB90E0E0910201FF27EE0F07
:1407C600FF1FE80FF91F0081118124E630E00E940A052AE00A
:1407DA0030E00E940805005D1F4FE7DC87EB90E0E091020168
:1407EE00FF27EE0FFF1FE80FF91F008111812AE030E00E94D8
:140802000A052AE030E00E940805005D1F4FD1DC87EB90E0B0
:14081600E0910201FF27EE0FFF1FE80FF91F008111812AE0ED
:14082A0030E00E940805005D1F4FBFDC7FCD229608952A9238
:14083E003A920A938A939A93EA93FA932FB62A922090CF00C9
:140852003324822D8F5F8093CF0080ED90E0E22DFF27E80FB3
:14086600F91F2CB020822090CF008EEC90E0E22DFF27E80F53
:14087A00F91F80818D3009F0B0C08FEC90E0E22DFF27E80F14
:14088E00F91F80818A3009F0A6C08BEB90E0E22DFF27E80F12
:1408A200F91F8081833509F099C08CEB90E0E22DFF27E80F0C
:1408B600F91F008100530093BD008DEB90E0E22DFF27E80FDE
:1408CA00F91F008100530093BE008EEB90E0E22DFF27E80FC8
:1408DE00F91F008100530093BF008FEB90E0E22DFF27E80FB2
:1408F200F91F008100530093C00080EC90E0E22DFF27E80FAB
:14090600F91F008100530093C10082EC90E0E22DFF27E80F93
:14091A00F91F008100530093C30083EC90E0E22DFF27E80F7C
:14092E00F91F008100530093C40084EC90E0E22DFF27E80F66
:14094200F91F008100530093C50085EC90E0E22DFF27E80F50
:14095600F91F008100530093C60086EC90E0E22DFF27E80F3A
:14096A00F91F008100530093C70088EC90E0E22DFF27E80F23
:14097E00F91F008100530093C90089EC90E0E22DFF27E80F0C
:14099200F91F008100530093CA008AEC90E0E22DFF27E80FF6
:1409A600F91F008100530093CB008BEC90E0E22DFF27E80FE0
:1409BA00F91F008100530093CC008CEC90E0E22DFF27E80FCA
:1409CE00F91F008100530093CD0081E0809303012224209259
:1409E200CF0029902FBEF991E9919991899109913990299028
:1409F6001895E02FF12FAA27BB270190002011F01196FBCF3B
:140A0A000A2F1B2F0895689401C0E894EA92FA928A93EE2448
:140A1E00FF2480E1000F111FEE1CFF1CE216F30618F0E21AE7
:140A3200F30A03958A95A1F716F40E2D1F2D8991F990E990B7
:140A46000895689401C0E8942A93FA92EA92FF24EE2420E1CB
:140A5A00000FFF1CEE1CE11610F0E11A03952A95B9F70EF459
:140A6E000E2DE990F99029910895A990B990C990D990E99023
:140A8200F99008957A936A935A934A93FA92EA92DA92CA9296
:140A9600BA92AA9208957A936A935A934A93BA92AA9208952E
:140AAA00A990B990499159916991799108955A934A93DA921B
:140ABE00CA92BA92AA920895A990B990C990D990499159919B
:020AD200089585
:00000001FF
