:040000000C946400F8
:04002C000C94CE035F
:140054000A0F14191E232430300000312E5475646F75736941
:1400680020200000322E48756967756F726F750000332E506C
:14007C00696A6975796120200000342E5A68756A69616F2049
:14009000200000352E51696E6763616920200000362E4875BC
:1400A4006F67756F6469200000533A0049443A005A6F6E67AF
:0F00B8006A69613A004875616E2079696E670068
:1400C800CFE5D4E0CDBFDEBFCE51D0400AEA08830024E3EDF1
:1400DC00F0E011E0E332F10711F00192FBCF0083E4E5F0E0C8
:1400F000A0E6B0E010E000E00BBFE73CF10721F0C8953196FC
:140104000D92F9CF0E947C01FFCF02E00A9508954A935A93AB
:14011800A80101C0F8DF1A01415050402220D1F73320C1F741
:14012C0059914991089504EF11E0EECF4A935A93A80101C089
:14014000F8DF1A01415050402220D1F73320C1F759914991BF
:14015400089522242AB82BB886E880BD83E389B920BC88E94F
:140168008AB908955D9BFECF0CB90895222428BA8FEF87BB94
:14017C0082B38F7882BB81B3806781BB08954A93402F959889
:140190009498969888B38F7088BB842F807F28B2282A28BAC4
:1401A400969A969888B38F7088BB842F8F70829528B2282A77
:1401B80028BA0AE010E00E948A00969A969805E010E00E9476
:1401CC009C00499108954A93402F9598949A969888B38F70FD
:1401E00088BB842F807F28B2282A28BA969A969888B38F7070
:1401F40088BB842F8F70829528B2282A28BA969A969805E09A
:1402080010E00E949C00499108954A934FEF05E010E00E94AB
:14021C009C00989903C041E0989BFECF999903C042E0999BD2
:14023000FECF9A9903C043E09A9BFECF9B9903C044E09B9B81
:14024400FECF042F4991089506E910E00E949C000FE010E033
:140258000E949C0002E095DF0FE010E00E949C0008E28FDF89
:14026C000FE010E00E949C0006E089DF0FE010E00E949C00F6
:140280000CE083DF0FE010E00E949C0001E07DDF0FE010E0E3
:140294000C949C000E94F905A22E602FAA2019F4462F405837
:1402A80002C0462F4054042F6CDF0C9400060E940706C22EB4
:1402BC00A02E4E815F812C2D0A2DE8DF01E010E00E949C004B
:1402D0008A010E94A905C02EAA240AC0FA01008178DF4F5F38
:1402E4005F4F01E010E00E949C00A394AC14A0F30C940E060B
:1402F8002297F894222424BA8FEF85BB82E081BB8FEF82BB72
:14030C0033DF9EDF89EC90E09983888322270027CCDF1BDF2D
:14032000222425BE2BBE29BE7894209009012220E1F331C201
:140334006EDF402F0F3F09F49BC0013009F04EC003E512DF42
:1403480000911101005D0EDF00911201005D0ADF0091130125
:14035C00005D06DF00911401005D02DF00911501005DFEDE87
:1403700000911601005DFADE00911701005DF6DE0091180118
:14038400005DF2DE00911901005DEEDE00911A01005DEADE93
:1403980000911B01005DE6DE00911C01005DE2DE00911D0109
:1403AC00005DDEDE00911E01005DDADE00911F01005DD6DE9D
:1403C00000912001005DD2DE00912101005DCEDE00912201FA
:1403D400005DCADE0DE0C8DE0AE0C6DE423051F480910A011C
:1403E8008F5F80930A01863018F0222420920A01433051F47C
:1403FC008091D3008F5F8093D300833018F022242092D300AF
:14041000443009F02FC01091D30006E00103100181E191E03A
:14042400280E391E40900A015524420C531CF20180818F5F44
:1404380080831091D3000103100181E191E0280E391EE09153
:14044C000A01FF27E20DF31D8081893068F00103100181E1E3
:1404600091E0280E391EE0910A01FF27E20DF31D2224208201
:1404740080910901813009F0D1C0222420920901E3DE1AE061
:14048800009160000E94D305802F805D809368001AE0009163
:14049C0060000E94D105802F805D809369008BE690E099836F
:1404B000888322270027FFDE86E690E09983888322270AE0AA
:1404C400F8DE1AE0009161000E94D305802F805D80936800E1
:1404D8001AE0009161000E94D105802F805D8093690088E735
:1404EC0090E09983888321E00027DFDE86E690E0998388837D
:1405000021E00AE0D8DE00ED17E00E949C001AE00091620037
:140514000E94D305802F805D809368001AE0009162000E94C3
:14052800D105802F805D8093690085E890E099838883222794
:14053C000027BBDE86E690E09983888322270AE0B4DE1AE029
:14055000009163000E94D305802F805D809368001AE0009197
:1405640063000E94D105802F805D8093690082E990E09983A9
:14057800888321E000279BDE86E690E09983888321E00AE0D5
:14058C0094DE00ED17E00E949C001AE0009164000E94D3055E
:1405A000802F805D809368001AE0009164000E94D105802F2A
:1405B400805D809369008FE990E0998388832227002777DE06
:1405C80086E690E09983888322270AE070DE1AE000916500AB
:1405DC000E94D305802F805D809368001AE0009165000E94F8
:1405F000D105802F805D809369008CEA90E09983888321E00B
:14060400002757DE86E690E09983888321E00AE050DE00ED7D
:1406180017E00E949C0016DE80910901823009F060C0222479
:14062C00209209010DDE80EC90E099838883222700273BDE87
:140640008BE091E0E091D300FF27EE0FFF1FE80FF91F0081B5
:14065400118128EE33E00E94B705005D1F4FB7DD8BE091E03E
:14066800E091D300FF27EE0FFF1FE80FF91F0081118124E6CD
:14067C0030E00E94B7052AE030E00E94B505005D1F4FA1DD3D
:140690008BE091E0E091D300FF27EE0FFF1FE80FF91F008165
:1406A40011812AE030E00E94B7052AE030E00E94B505005D65
:1406B8001F4F8BDD8BE091E0E091D300FF27EE0FFF1FE80F00
:1406CC00F91F008111812AE030E00E94B505005D1F4F79DD58
:1406E00000EA1FE00E949C00B1DD80E690E0E0910A01FF27D9
:1406F400E80FF91F00811AE00E94D305802F805D80936800E7
:1407080080E690E0E0910A01FF27E80FF91F00811AE00E9439
:14071C00D105802F805D8093690010910A010DE0010310013D
:140730008BE690E0280E391E3982288222270027BADD86E66F
:1407440090E09983888322270CE0B3DD8CEB90E09983888337
:1407580021E00027ACDD0091D3000F5C36DD89EB90E09983FA
:14076C00888321E00DE0A1DD1091D30006E00103100181E131
:1407800091E0280E391EE0910A01FF27E20DF31D0081005DE8
:140794001EDDCECD229608950A921A922A923A924A925A92CE
:1407A8000A931A932A933A938A939A93EA93FA930FB60A92B4
:1407BC004A932090D6003324822D8F5F8093D60087ED90E005
:1407D000E22DFF27E80FF91F2CB020822090D60085ED90E0EB
:1407E400E22DFF27E80FF91F80818D3009F09DC186ED90E0C5
:1407F800E22DFF27E80FF91F80818A3009F093C182EC90E0C3
:14080C00E22DFF27E80FF91F8081833509F088C084EC90E0BA
:14082000E22DFF27E80FF91F408140530AE0142F0103402D8E
:1408340085EC90E0E22DFF27E80FF91F80818053480F40938D
:14084800600087EC90E0E22DFF27E80FF91F40814053142F7E
:14085C000103402D88EC90E0E22DFF27E80FF91F808180531B
:14087000480F409361008AEC90E0E22DFF27E80FF91F4081FE
:140884004053142F0103402D8BEC90E0E22DFF27E80FF91FEE
:1408980080818053480F409362008DEC90E0E22DFF27E80FD7
:1408AC00F91F40814053142F0103402D8EEC90E0E22DFF27F9
:1408C000E80FF91F80818053480F4093630080ED90E0E22DC8
:1408D400FF27E80FF91F40814053142F0103402D81ED90E0F5
:1408E800E22DFF27E80FF91F80818053480F4093640083EDE6
:1408FC0090E0E22DFF27E80FF91F40814053142F0103402D2C
:1409100084ED90E0E22DFF27E80FF91F80818053480F4093B0
:14092400650081E08093090188EC90E0E091D600FF27E80F94
:14093800F91F80818A3409F0F3C089EC90E0E091D600FF27D6
:14094C00E80FF91F40814053242F332708EE13E00E94E9050E
:1409600010930C0100930B018AEC90E0E091D600FF27E80FEA
:14097400F91F4081405304E6142F010320900B0130900C0149
:14098800200C311C30920C0120920B018BEC90E0E091D60027
:14099C00FF27E80FF91F408140530AE0142F0103200C311C14
:1409B00030920C0120920B018CEC90E0E091D600FF27E80F5A
:1409C400F91F40814053242E332440900B0150900C01420CF3
:1409D800531C50920C0140920B018DEC90E0E091D600FF2779
:1409EC00E80FF91F40814053242F332708EE13E00E94E9056E
:140A000010930E0100930D018EEC90E0E091D600FF27E80F41
:140A1400F91F4081405304E6142F010320900D0130900E01A4
:140A2800200C311C30920E0120920D018FEC90E0E091D6007E
:140A3C00FF27E80FF91F408140530AE0142F0103200C311C73
:140A500030920E0120920D0180ED90E0E091D600FF27E80FC0
:140A6400F91F40814053242E332440900D0150900E01420C4E
:140A7800531C50920E0140920D0181ED90E0E091D600FF27DF
:140A8C00E80FF91F40814053242F332708EE13E00E94E905CD
:140AA0001093100100930F0182ED90E0E091D600FF27E80FA8
:140AB400F91F4081405304E6142F010320900F013090100100
:140AC800200C311C3092100120920F0183ED90E0E091D600E5
:140ADC00FF27E80FF91F408140530AE0142F0103200C311CD3
:140AF0003092100120920F0184ED90E0E091D600FF27E80F18
:140B0400F91F40814053242E332440900F0150901001420CA9
:140B1800531C5092100140920F0182E080930901222420920E
:140B2C00D600499109900FBEF991E9919991899139912991D3
:140B4000199109915990499039902990199009901895E02F1B
:140B5400F12FAA27BB270190002011F01196FBCF0A2F1B2F14
:140B68000895689401C0E894EA92FA928A93EE24FF2480E1E8
:140B7C00000F111FEE1CFF1CE216F30618F0E21AF30A039577
:140B90008A95A1F716F40E2D1F2D8991F990E9900895689454
:140BA40001C0E8942A93FA92EA92FF24EE2420E1000FFF1CDB
:140BB800EE1CE11610F0E11A03952A95B9F70EF40E2DE99070
:140BCC00F990299108950A921A928A939A93029FC001129F90
:140BE000900D039F900D8C01999189911990099008957A9368
:140BF4006A935A934A93BA92AA920895A990B99049915991BB
:140C08006991799108955A934A93DA92CA92BA92AA92089580
:0E0C1C00A990B990C990D99049915991089525
:00000001FF
